:100000000C9434000C9449000C9449000C94490061
:100010000C9449000C9449000C9449000C9449003C
:100020000C9449000C9449000C9449000C9449002C
:100030000C9449000C9449000C9449000C9449001C
:100040000C9449000C9449000C9449000C9449000C
:100050000C9449000C9449000C9449000C944900FC
:100060000C9449000C94490011241FBECFEFD8E036
:10007000DEBFCDBF12E0A0E0B1E0E2ECF7E002C0ED
:1000800005900D92A030B107D9F70E9498000C940A
:10009000DF030C940000ECE7F0E080818F7D80832B
:1000A00080818064808380818F778083EAE7F0E0BD
:1000B00080818E7F80838081826080838081846064
:1000C0008083EBE7F0E080818E7F808380818D7F6D
:1000D000808380818B7F8083089590917C00907FC6
:1000E00090937C0090917C00982B90937C00809161
:1000F0007A00806880937A008AE18A95F1F780918E
:100100007A00806480937A0080917A0084FFFCCF2B
:1001100080917A00806180937A0080917A008F7755
:1001200080937A002091780030917900C901089578
:10013000EF92FF920F931F938FEF84B915B80E942F
:100140004B0080E090E00E946D0062E070E00E9451
:100150008103882777FD8095982F0E942E017B01CF
:100160008C0120E030E040EF51E40E94CE00882373
:100170001CF0289A299810C0C801B70120E030E08F
:1001800040E951E40E94FE00181624F02A9A2898AB
:100190002998D7CF299A28982A98D3CFA8E1B0E0F8
:1001A000E4EDF0E00C94B40369837A838B839C8341
:1001B0002D833E834F83588789E0E82EF12CEC0E87
:1001C000FD1ECE010196B7010E94B0028E010F5EA6
:1001D0001F4FCE010596B8010E94B002898582307A
:1001E00040F08989823028F0C701B8010E942803B5
:1001F00001C08FEF6896E6E00C94D003A8E1B0E070
:10020000E4E0F1E00C94B40369837A838B839C83EC
:100210002D833E834F83588789E0E82EF12CEC0E26
:10022000FD1ECE010196B7010E94B0028E010F5E45
:100230001F4FCE010596B8010E94B0028985823019
:1002400040F08989823028F0C701B8010E94280354
:1002500001C081E06896E6E00C94D003A8E0B0E02D
:10026000E4E3F1E00C94B1039B01AC0183E08983EA
:10027000DA01C9018827B7FD83959927AA27BB27EB
:10028000B82E211531054105510519F482E0898305
:100290003AC08823A9F0203080E0380780E0480782
:1002A00080E8580729F460E070E080E09FEC30C0FF
:1002B000EE24FF248701E21AF30A040B150B02C097
:1002C00079018A018EE1C82ED12CDC82CB82ED82AD
:1002D000FE820F831887C801B7010E948C01019725
:1002E0001816190684F4082E04C0EE0CFF1C001F1B
:1002F000111F0A94D2F7ED82FE820F831887C81A65
:10030000D90ADC82CB82BA82CE0101960E94DB013F
:100310002896E9E00C94CD03EF92FF920F931F9380
:100320007B018C0180E0E81680E0F80681E0080798
:1003300080E0180788F48FEFE816F1040105110535
:1003400031F028F088E090E0A0E0B0E017C080E055
:1003500090E0A0E0B0E012C080E0E81680E0F8068F
:1003600080E0080781E0180728F088E190E0A0E02D
:10037000B0E004C080E190E0A0E0B0E020E230E036
:1003800040E050E0281B390B4A0B5B0B04C016956C
:100390000795F794E7948A95D2F7F701E050FF4F5D
:1003A0008081281B310941095109C9011F910F9111
:1003B000FF90EF900895DF92EF92FF920F931F93BB
:1003C000FC01E480F58006811781D1808081823034
:1003D00048F480E090E0A0E1B0E0E82AF92A0A2B96
:1003E0001B2BA5C0843009F49FC0823021F4EE2479
:1003F000FF24870105C0E114F1040105110519F47A
:10040000E0E0F0E096C0628173819FEF6238790787
:100410000CF05BC022E83FEF261B370B2A31310579
:100420002CF020E030E040E050E02AC0B801A70105
:10043000022E04C076956795579547950A94D2F792
:1004400081E090E0A0E0B0E004C0880F991FAA1FEF
:10045000BB1F2A95D2F70197A109B1098E219F21CF
:10046000A023B1230097A105B10521F081E090E020
:10047000A0E0B0E09A01AB01282B392B4A2B5B2B73
:10048000DA01C9018F779070A070B0708034910547
:10049000A105B10539F427FF09C0205C3F4F4F4F3C
:1004A0005F4F04C0215C3F4F4F4F5F4FE0E0F0E0F3
:1004B0002030A0E03A07A0E04A07A0E45A0710F075
:1004C000E1E0F0E079018A0127C06038710564F548
:1004D000FB01E158FF4FD801C7018F779070A070E2
:1004E000B07080349105A105B10539F4E7FE0DC067
:1004F00080E490E0A0E0B0E004C08FE390E0A0E0F2
:10050000B0E0E80EF91E0A1F1B1F17FF05C0169565
:100510000795F794E794319687E016950795F79439
:10052000E7948A95D1F705C0EE24FF248701EFEF09
:10053000F0E06E2F679566276795902F9F77D79489
:10054000DD24D7948E2F8695492F462B582F5D2971
:10055000B701CA011F910F91FF90EF90DF900895AE
:10056000FC01DB01408151812281622F6F7770E0B5
:10057000221F2227221F9381892F880F822B282F49
:1005800030E0991F9927991F11969C931197211577
:100590003105A9F5411551056105710511F482E098
:1005A00037C082E89FEF13969C938E9312979A011F
:1005B000AB0167E0220F331F441F551F6A95D1F727
:1005C00083E08C930DC0220F331F441F551F1296DA
:1005D0008D919C911397019713969C938E931297EC
:1005E000203080E0380780E0480780E4580758F35F
:1005F00014962D933D934D935C93179708952F3F39
:10060000310579F4411551056105710519F484E04E
:100610008C93089564FF03C081E08C9312C01C92F8
:1006200010C02F57304013963C932E93129783E0BF
:100630008C9387E0440F551F661F771F8A95D1F76B
:10064000706414964D935D936D937C931797089502
:100650001F93DC01FB019C91923008F447C080811C
:10066000823008F443C0943051F411961C918430C8
:1006700099F58181682F70E0611B71093FC084305A
:1006800021F0923031F48230B9F18181882389F1EF
:100690002DC011961C9111978230F1F081811817AD
:1006A000D9F412962D913C911397828193818217F0
:1006B000930794F028173907BCF014968D919D91FB
:1006C0000D90BC91A02D248135814681578128173A
:1006D00039074A075B0718F4112341F00AC0821753
:1006E0009307A407B50740F4112319F061E070E007
:1006F00005C06FEF7FEF02C060E070E0CB011F919B
:10070000089597FB092E07260AD077FD04D00CD058
:1007100006D000201AF4709561957F4F0895F6F782
:10072000909581959F4F0895AA1BBB1B51E107C06F
:10073000AA1FBB1FA617B70710F0A61BB70B881F71
:10074000991F5A95A9F780959095BC01CD01089500
:100750002F923F924F925F926F927F928F929F92D1
:10076000AF92BF92CF92DF92EF92FF920F931F93BF
:10077000CF93DF93CDB7DEB7CA1BDB0B0FB6F89470
:10078000DEBF0FBECDBF09942A88398848885F84B0
:100790006E847D848C849B84AA84B984C884DF8021
:1007A000EE80FD800C811B81AA81B981CE0FD11D05
:1007B0000FB6F894DEBF0FBECDBFED010895F894DB
:0207C000FFCF69
:1007C20000010202030303030404040404040404F6
:1007D20005050505050505050505050505050505C7
:1007E20006060606060606060606060606060606A7
:1007F2000606060606060606060606060606060697
:100802000707070707070707070707070707070776
:100812000707070707070707070707070707070766
:100822000707070707070707070707070707070756
:100832000707070707070707070707070707070746
:100842000808080808080808080808080808080826
:100852000808080808080808080808080808080816
:100862000808080808080808080808080808080806
:1008720008080808080808080808080808080808F6
:1008820008080808080808080808080808080808E6
:1008920008080808080808080808080808080808D6
:1008A20008080808080808080808080808080808C6
:1008B20008080808080808080808080808080808B6
:00000001FF
