:100000000C942A000C9434000C9434000C943400AA
:100010000C9434000C9434000C9434000C94340090
:100020000C9434000C9434000C9434000C94340080
:100030000C9434000C9451000C9434000C94340053
:100040000C9434000C9434000C9434000C94340060
:100050000C94340011241FBECFE5D8E0DEBFCDBF25
:100060000E946F000C9477000C94000080B58F7B89
:1000700080BD80B58F7E80BD80B58F7D80BD80B511
:10008000887080BD80B5826080BD80B5846080BD91
:100090005298599A10BC87E689B9549A539A579A3C
:1000A00008951F920F920FB60F9211248F939F9372
:1000B0008CB1813629F488B391E0892788BB08C0C8
:1000C0005D9BFECF86E48CB95D9BFECF8DE08CB945
:1000D0009F918F910F900FBE0F901F9018958FEFEB
:1000E00087BB18BAF8940E9436007894FFCFF89432
:0200F000FFCF40
:00000001FF
