:100000000C94A7000C94BC000C94BC000C94BC0095
:100010000C94BC000C94BC000C94BC000C94BC0070
:100020000C94BC000C94BC000C94BC000C94BC0060
:100030000C94BC000C94BC000C94BC000C94BC0050
:100040000C94BC000C94BC000C94BC000C94BC0040
:100050000C94BC0000407A10F35A00A0724E1809AC
:100060000010A5D4E80000E87648170000E40B541F
:10007000020000CA9A3B000000E1F50500008096EE
:100080009800000040420F000000A0860100000020
:10009000102700000000E8030000000064000000DA
:1000A00000000A00000000000100000000002C76A3
:1000B000D888DC674F0823DFC1DFAE59E1B1B796BE
:1000C000E5E3E453C63AE651997696E8E6C284261B
:1000D000EB898C9B62ED407C6FFCEFBC9C9F40F2F7
:1000E000BAA56FA5F490055A2AF75C936B6CF96773
:1000F0006DC11BFCE0E40D47FEF520E6B500D0ED38
:10010000902E0300943577050080841E080000209F
:100110004E0A000000C80C333333330F986E12833D
:100120001141EF8D2114893BE65516CFFEE6DB1811
:10013000D1844B381BF77C1D901DA4BBE4242032D6
:1001400084725E228100C9F124ECA1E53D271124CF
:100150001FBECFE5D8E0DEBFCDBF10E0A0E6B0E027
:10016000E0EDF8E002C005900D92A636B107D9F790
:100170000E94B2010C9466040C940000009711F4E4
:1001800000C008950197F1F70895C29A00C0C2987F
:1001900008951F93662311F0C09A01C0C098C198BA
:1001A000BC9ABD9ABE9ABF9AC798C698C598C4987B
:1001B00087FDC79A182F86FDC69A15FDC59A14FDAE
:1001C000C49A0E94C500C798C698C598C49813FDE4
:1001D000C79A12FDC69A11FDC59A10FDC49A0E94D5
:1001E000C500C49AC59AC69AC79A1F910895C09827
:1001F000C19ABC98BD98BE98BF98C29A00C0B499E5
:1002000002C080E001C080E1B5998062B699806447
:10021000B7998068C29800C0C29A00C0B499816042
:10022000B5998260B6998460B7998860C29808953C
:100230000E94F70087FDFCCF88E090E00E94BE009E
:100240000E94F70008951F93182F0E941801812F14
:1002500060E00E94C9001F9108951F93182F0E940B
:100260001801812F61E00E94C9001F910895662343
:1002700011F4805801C080540E94230108950E9407
:10028000180190E0089581E00E942301089582E022
:100290000E94230108951F93182F0E9418011A30FD
:1002A00049F4803410F480E401C080E080580E945A
:1002B000230104C0812F61E00E94C9001F910895AD
:1002C000CF93DF93EC0102C00E944B0189918823F8
:1002D000D9F7DF91CF910895CF93DF93EC0102C05E
:1002E0000E944B01FE01219684918823C9F7DF917A
:1002F000CF9108951F93182FB89AB99ABA9ABC9AB9
:10030000BD9ABE9ABF9A80E09AEF0E94BE00C59A3D
:10031000C49A0E94C50080E09EE40E94BE000E9434
:10032000C50080E091E00E94BE000E94C50080E010
:1003300091E00E94BE00C4980E94C50080E091E058
:100340000E94BE0088E20E94230188E00E942301EF
:100350000E94430186E00E942301812F0E94230115
:100360001F910895EF92FF920F931F93DF93CF9306
:10037000CDB7DEB72A970FB6F894DEBF0FBECDBF5C
:100380008FEF87BB18BA60ED7FE089E490E441E02D
:1003900024E07E010894E11CF11C87010E94DE012B
:1003A0008CE00E947A010E94430180E690E00E9466
:1003B0006001C7010E9460010000FECFEF92FF9232
:1003C0000F931F93322FF02E47FF02C0A4E101C00C
:1003D000A4E0E42FFF27E7FDF095F7FF03C0F095B9
:1003E000E195FF4F4F2D512F2E2F032FEA2E0E9404
:1003F00000028F2D912F1F910F91FF90EF90089584
:10040000A9E0B0E0E6E0F2E00C9437046A01F22ED5
:10041000102F0C3318F4B02EB39402C0ECE3BE2EB0
:10042000AE014F5F5F4F27E00B2D0E9457032981DC
:1004300030E0A901497050704130510531F0E1FCC4
:1004400006C0E0FE06C0E0E205C0EDE203C0EBE25C
:1004500001C0E0E023FF37C0EE2311F084E001C0CB
:1004600083E08F1518F4F81A8F2D01C080E0E4FCAA
:100470000BC0982FD60120E202C02D9391509923F2
:10048000E1F7C80ED11C80E0EE2319F0D601ED9300
:100490006D01F6013196E2FE05C09EE4D6019C9303
:1004A00021E404C09EE6D6019C9321E611962C938C
:1004B00091833296982FDF0120E202C02D93915054
:1004C0009923E1F73DC022FF41C0EE2311F084E003
:1004D00001C083E08F1518F4F81A8F2D01C080E059
:1004E000E4FC0BC0982FD60120E202C02D9391505E
:1004F0009923E1F7C80ED11C80E0EE2319F0D60154
:10050000ED936D01F6013196E2FE09C099E4D60142
:100510009C939EE411969C93119796E407C099E6EC
:10052000D6019C939EE611969C9396E69183329613
:10053000982FDF0120E202C02D9391509923E1F71B
:10054000E80FF11D10822EEF3FEFACC041E050E00C
:10055000EE2311F440E050E01816190624F4BC0113
:100560006F5F7F4F02C061E070E0640F751F112361
:1005700029F0412F50E04F5F5F4F02C040E050E054
:10058000460F571F6F2D70E0461757071CF40F2DAD
:10059000041B01C000E0FF24A70140715070E4FC7F
:1005A0000DC0E3FC0BC0602FD60170E202C07D934A
:1005B00061506623E1F7C00ED11C00E0EE2319F074
:1005C000D601ED936D014115510559F4402FF60107
:1005D00050E302C0519341504423E1F7C00ED11CB7
:1005E00000E0B80EFA80A9014071507024FF04C0E9
:1005F000BF2DB13309F4BA941B142CF4AB2DA930E0
:1006000018F0A8E001C0A1E09C0197FF02C020E023
:1006100030E0BC016F5F7F4F621B730BFE013196B0
:10062000E60FF71F6EE2E62EBC016A1B7109A12FCF
:10063000B0E0AA24BB24AA1ABB0A1FEF2F3F310740
:1006400019F4D601ED926D01821793072CF0621711
:10065000730714F4108101C010E32150304031962B
:100660002A153B0524F0D6011D936D01E6CF28170E
:10067000390749F4BF2DB63328F4B53321F44115B9
:10068000510509F411E3F6011193802FDF0190E287
:1006900002C09D9381508823E1F7E00FF11D108285
:1006A00020E030E0C9012996EAE00C945304283098
:1006B00008F027E03327DA01990F311D87FD91609B
:1006C00000966105710539F432602E5F3D9330E389
:1006D0002A95E1F708959F3F30F080387105610554
:1006E00009F03C5F3C5F3D93913008F08068911DBC
:1006F000DF93CF931F930F93FF92EF92192F987F61
:100700009695E92F96959695E90FFF27E255FF4FAD
:1007100099273327EE24FF24A701E70105900894C9
:10072000079428F4360FE71EF81E491F511D660F67
:10073000771F881F991F0694A1F70590079428F446
:10074000E70EF81E491F561FC11D770F881F991FFE
:10075000661F0694A1F70590079428F4F80E491F28
:10076000561FC71FD11D880F991F661F771F06943C
:10077000A1F70590079420F4490F561FC71FD81FF3
:10078000990F661F771F881F0694A9F7849110950B
:10079000177041F0D695C79557954795F794E7940C
:1007A0001A95C1F7E4E5F0E068941590159135913C
:1007B0006591959105907FE27395E118F10A430BDD
:1007C000560BC90BD009C0F7E10CF11E431F561F91
:1007D000C91FD01D7EF4703311F48A95E6CFE894DA
:1007E000015030F0080F0AF40027021708F4202FF8
:1007F0002395022F7A3328F079E37D932A95E9F740
:1008000010C07D932A9589F606949795679537953C
:1008100017951794E118F10A430B560BC90BD00931
:1008200098F023957E9173957A3308F070E37C936A
:100830002013B8F77E9170617D9330F0839571E35A
:100840007D9370E32A95E1F71124EF90FF900F91CB
:100850001F91CF91DF91992787FD909508952F9251
:100860003F924F925F926F927F928F929F92AF9240
:10087000BF92CF92DF92EF92FF920F931F93CF938D
:10088000DF93CDB7DEB7CA1BDB0B0FB6F894DEBF24
:100890000FBECDBF09942A88398848885F846E844A
:1008A0007D848C849B84AA84B984C884DF80EE8094
:1008B000FD800C811B81AA81B981CE0FD11D0FB69D
:1008C000F894DEBF0FBECDBFED010895F894FFCFC1
:0608D0005049203D20000C
:00000001FF
