:100000000C942A000C943F000C943F000C943F0089
:100010000C943F000C943F000C943F000C943F0064
:100020000C943F000C943F000C943F000C943F0054
:100030000C943F000C943F000C943F000C943F0044
:100040000C943F000C943F000C943F000C943F0034
:100050000C943F0011241FBECFE5D8E0DEBFCDBF1A
:1000600010E0A0E6B0E0E2E8F3E002C005900D92F7
:10007000AE37B107D9F70E9455010C94BF010C941B
:100080000000009711F400C008950197F1F708955A
:10009000C29A00C0C29808951F93662311F0C09AB7
:1000A00001C0C098C198BC9ABD9ABE9ABF9AC79821
:1000B000C698C598C49887FDC79A182F86FDC69A1A
:1000C00015FDC59A14FDC49A0E944800C798C698A9
:1000D000C598C49813FDC79A12FDC69A11FDC59A1A
:1000E00010FDC49A0E944800C49AC59AC69AC79A3D
:1000F0001F910895C098C19ABC98BD98BE98BF98AA
:10010000C29A00C0B49902C080E001C080E1B599F4
:100110008062B6998064B7998068C29800C0C29A1C
:1001200000C0B4998160B5998260B6998460B7992E
:100130008860C29808950E947A0087FDFCCF88E00D
:1001400090E00E9441000E947A0008951F93182FAA
:100150000E949B00812F60E00E944C001F91089537
:100160001F93182F0E949B00812F61E00E944C007A
:100170001F910895662311F4805801C080540E9495
:10018000A60008950E949B0090E0089581E00E94DF
:10019000A600089582E00E94A60008951F93182FDC
:1001A0000E949B001A3049F4803410F480E401C0AE
:1001B00080E080580E94A60004C0812F61E00E9468
:1001C0004C001F910895CF93DF93EC0102C00E9471
:1001D000CE0089918823D9F7DF91CF910895CF93ED
:1001E000DF93EC0102C00E94CE00FE0121968491B3
:1001F0008823C9F7DF91CF9108951F93182FB89ADC
:10020000B99ABA9ABC9ABD9ABE9ABF9A80E09AEF00
:100210000E944100C59AC49A0E94480080E09EE472
:100220000E9441000E94480080E091E00E9441004D
:100230000E94480080E091E00E944100C4980E9422
:10024000480080E091E00E94410088E20E94A60000
:1002500088E00E94A6000E94C60086E00E94A600D8
:10026000812F0E94A6001F9108953D983E9A3F9AC3
:10027000309A319A329A80B78F7D80BF80B78F7B5A
:1002800080BF80B78F7780BF359A089597B1907FF0
:1002900097B997B1982B97B9379A369A349BFECF76
:1002A000349A24B135B1C9010895FF920F931F9379
:1002B000CF93DF9317BA8FEF84BB18BA85BB0E9428
:1002C00035018CE00E94FD000E94C6000E94CA0019
:1002D00080E061E00E94BA0080E690E00E94E300C6
:1002E000C4E0D0E00AE010E00E94CA0080E790E09D
:1002F0000E94E30083E090E00E944601BE010E945C
:100300009801CB01B8010E949801F82E862F805DDC
:100310000E94CE008F2D805D0E94CE008FEF91EE67
:10032000A4E081509040A040E1F700C00000DCCF85
:1003300097FB092E07260AD077FD04D00CD006D0F3
:1003400000201AF4709561957F4F0895F6F7909507
:1003500081959F4F0895AA1BBB1B51E107C0AA1F9F
:10036000BB1FA617B70710F0A61BB70B881F991F56
:100370005A95A9F780959095BC01CD010895F89400
:02038000FFCFAD
:1003820057696C20657320756E20637261636B0020
:0E03920054656D70657261747572613A200079
:00000001FF
