:100000000C9434000C943E000C943E000C943E0082
:100010000C943E000C943E000C943E000C943E0068
:100020000C943E000C943E000C943E000C943E0058
:100030000C943E000C943E000C943E000C943E0048
:100040000C943E000C943E000C943E000C943E0038
:100050000C943E000C943E000C943E000C943E0028
:100060000C943E000C943E0011241FBECFEFD8E04C
:10007000DEBFCDBF0E94B3000C94BF000C94000003
:1000800080EF87BB8FEF88BB089580E090E06FEF33
:1000900021E030E068BB78B3AC014C5F5F4FF90101
:1000A00002C0EE0FFF1F4A95E2F7AF0140954723CC
:1000B00048BBB09910C08230910549F0833091055A
:1000C00041F08130910509F446C081E3089583E34E
:1000D000089581E40895B1990FC08230910541F0EF
:1000E0008330910539F081309105B9F184E30895A9
:1000F00086E3089582E40895B2990FC08230910595
:1001000041F08330910539F08130910541F187E369
:10011000089589E3089583E40895B3990FC0823068
:10012000910541F08330910539F081309105C9F096
:1001300083E208958AE2089584E40895EFEDFBEAEE
:100140003197F1F700C0000001968430910509F065
:10015000A1CF80E0089582E3089585E3089588E3C0
:10016000089580E308958FEF84BB15BA0E94400084
:100170000E9445008823E1F3805385BBF9CFF894B2
:02018000FFCFAF
:00000001FF
