:100000000C9434000C943E000C943E000C943E0082
:100010000C943E000C943E000C943E000C943E0068
:100020000C943E000C943E000C943E000C943E0058
:100030000C943E000C943E000C943E000C943E0048
:100040000C943E000C943E000C943E000C943E0038
:100050000C943E000C943E000C943E000C943E0028
:100060000C943E000C943E0011241FBECFEFD8E04C
:10007000DEBFCDBF0E9440000C944F000C940000E6
:100080003D9A40E228EC30E088B1842788B988EEB8
:1000900093E0F9013197F1F70197D9F7F5CFF8948B
:0200A000FFCF90
:00000001FF
