:100000000C9434000C9449000C9449000C94490061
:100010000C9449000C9449000C9449000C9449003C
:100020000C9449000C9449000C9449000C9449002C
:100030000C9449000C9449000C9449000C9449001C
:100040000C9449000C9449000C9449000C9449000C
:100050000C9449000C9449000C9449000C944900FC
:100060000C9449000C94490011241FBECFEFD8E036
:10007000DEBFCDBF11E0A0E0B1E0E4E0F1E002C0FE
:1000800005900D92AA30B107D9F70E944B000C944D
:1000900080000C940000DF93CF93CDB7DEB72A9792
:1000A0000FB6F894DEBF0FBECDBF8AB18FEF8AB90D
:1000B0009BB18BB9DE011196E0E0F1E08AE001909E
:1000C0000D928150E1F780E090E0BE016F5F7F4FBD
:1000D00040E951E09C01FB01E20FF31F8081809514
:1000E0008BB988E893E1FA013197F1F70197D9F7D5
:1000F000C901019620E030E08A30910559F7EBCF35
:04010000F894FFCFA1
:0A0104003F065B4F666D7D07FF6745
:00000001FF
